:100000000C9424010C944C010C944C010C944C0164
:100010000C944C010C944C010C944C010C944C012C
:100020000C944C010C944C010C94F9040C945B0658
:100030000C944C010C944C010C944C010C944C010C
:100040000C944C010C944C010C944C010C944C01FC
:100050000C944C010C944C010C944C010C94870DA5
:100060000C944C010C944C010C944C010C944C01DC
:100070000C944C010C944C010C944C010C944C01CC
:100080000C944C010C944C010C944C010C944C01BC
:100090000C9499080C944C010C944C010C944C0158
:1000A0000C944C010C944C010C944C01BD0CC00CF4
:1000B000AF0CB30CB90CE10CE10CE10CC40CC80C96
:1000C000CC0CD20CD60CE10CDC0C07634236B79B8F
:1000D000D8A71A39685618AEBAAB558C1D3CB7CCA8
:1000E0005763BD6DEDFD753EF6177231BF00000020
:1000F000803F08000000BE922449123EABAAAA2A03
:10010000BECDCCCC4C3E00000080BEABAAAAAA3E1D
:1001100000000000BF000000803F00000000000859
:100120004178D3BB4387D1133D190E3CC3BD4282F6
:10013000AD2B3E68EC8276BED98FE1A93E4C80EFB4
:10014000FFBE01C4FF7F3F00000000000000000070
:100150002300260029002C002F00080B00020202B9
:100160000100090400000102020000052400100142
:1001700005240101010424020605240600010705E7
:10018000810310004009040100020A000000070575
:100190000202400000070583024000000403090436
:1001A00012010002EF0201404F1B06920001010202
:1001B0000301537061726B46756E00537061726B10
:1001C00046756E2050726F204D6963726F0000009B
:1001D0000000240027002A002D003000000000004D
:1001E000250028002B002E00310004040404040321
:1001F00004050202020204030202020206060606C7
:1002000006060404020202040404080201104080ED
:1002100040102040804080080204018040201002ED
:1002200001108010204040200000000200090F0053
:1002300000030401000C00000000000000000000AA
:10024000000000000000CC1011241FBECFEFDAE048
:10025000DEBFCDBF11E0A0E0B1E0EEEBFFE202C0F7
:1002600005900D92A435B107D9F722E0A4E5B1E0DD
:1002700001C01D92AC3DB207E1F711E0C4E2D1E04C
:1002800004C02197FE010E949416C332D107C9F71A
:100290000E94A00E0C94DD170C9400000895E091CC
:1002A000FD01F091FE01309729F01092FA011092B1
:1002B000F90109940895CF93DF93AC01E091FF0118
:1002C000F09100023097F1F09091FC018091FB01D8
:1002D0009817C0F090E0292F30E02617370754F424
:1002E000D901A95ABE4FEA01C20FD31F28812C930E
:1002F0009F5FF1CF1092FC016093FB01CB01DF9176
:10030000CF910994DF91CF9108954091EF015091E1
:10031000F0012091ED013091EE0142175307B4F442
:100320009091E8009570E1F39091E80092FD19C07A
:100330008093F1008091EF019091F00101968F730D
:100340009927892B19F48EEF8093E8008091EF01B3
:100350009091F00101969093F0018093EF0181E07C
:10036000089580E00895DF92EF92FF920F931F931C
:10037000CF93DF93D82EF92EE42E062F10E0C8017C
:100380000196880F0E94850183E00E948501CD2D92
:10039000DF2D0C0F1D1FC017D10789F0E7FE03C02A
:1003A000FE01849101C088810E948501F82E80E0C1
:1003B0000E9485018F2121968111EDCF01C081E03E
:1003C000DF91CF911F910F91FF90EF90DF900895F3
:1003D000DF92EF92FF920F931F93CF93DF93D82E6C
:1003E0008A017B01E40EF51EEB01CE15DF0571F0ED
:1003F000D7FE03C0FE01849101C088810E9485015F
:1004000021968111F2CF8FEF9FEF01C0C801DF91DC
:10041000CF911F910F91FF90EF90DF900895615061
:1004200030F02091F100FC0120830196F8CF28984C
:1004300084E6809308020895CF92DF92EF92FF92B4
:100440000F931F93CF93DF936C017A018B01C0E070
:10045000D0E0CE15DF0581F0D8016D918D01D60178
:10046000ED91FC910190F081E02DC6010995892B59
:1004700011F02196EECF7E01C701DF91CF911F9140
:100480000F91FF90EF90DF90CF900895DC01FB017A
:1004900012968C91129790E02481358182179307F0
:1004A000D1F491818081813A31F481E0913091F0F1
:1004B000933089F411C0813271F49B3021F4828130
:1004C0001F968C9305C09A3031F4828150968C939C
:1004D00081E00895089580E00895DC01FB0188E43F
:1004E000808389E4818384E482831D969C911D9797
:1004F0009F709F5B93831D968D919C911E9724E026
:10050000969587952A95E1F78F708F5B848385E0B8
:100510000895EF92FF920F931F93CF93DF93FB0108
:100520002081213869F52381223251F5DC011296B0
:100530002C9130E0448155814217530709F58C0115
:10054000FC01C385D485E12CF12C209799F04C81D6
:100550005D816A817B818E81811180E80E94E80142
:100560008F3FFFEF9F0779F0E80EF91E0990D881C1
:10057000C02DEBCF81E0D8011F968C93C70105C039
:1005800080E090E002C08FEF9FEFDF91CF911F914D
:100590000F91FF90EF900895CF93DF93CDB7DEB723
:1005A00069970FB6F894DEBF0FBECDBFFC01DB012B
:1005B0008C918F5F8C93BE016F5F7F4F89E1DB0170
:1005C0001D928A95E9F729E0298384E08A8391E0E6
:1005D0009D8383E08E832A8721E22B879C879D87DA
:1005E0009F8722E2288B27E02B8B25E02C8B8E8B9C
:1005F00020E430E0388F2F8B998F82818B83958513
:100600008685998B8A8B838180688D8B49E150E048
:1006100080E00E94E80169960FB6F894DEBF0FBE35
:10062000CDBFDF91CF910895FC0182818F5BFB01EB
:10063000808381E0089585ED8093BC008091BC00AB
:1006400084FDFCCF1092BB01089540919701262FA5
:1006500030E0240F311D21323105DCF42091BB0143
:100660002430C9F4FC0180E090E0861758F4309102
:1006700097012191DC01A958BE4FA30FB11D2C9306
:100680000196F3CF80919701680F6093970180E006
:10069000089581E0089582E00895E091FC01809141
:1006A000FB01E81730F4F0E0E95AFE4F808190E05A
:1006B00008958FEF9FEF08959091FC018091FB01C9
:1006C000981750F4E92FF0E0E95AFE4F208130E00E
:1006D0009F5F9093FC0102C02FEF3FEFC901089587
:1006E0008091FB0190E02091FC01821B910908950B
:1006F000CF93DF93CB01EA01642F0E942503CE0143
:10070000DF91CF910895CF93DF931F92CDB7DEB7DE
:10071000698361E0CE0101960E94250381E090E0AB
:100720000F90DF91CF910895089580E090E00895B3
:100730001092BB0181E08093BD011092BC0161E089
:1007400082E00E94E20C61E083E00E94E20CE9EBAF
:10075000F0E080818E7F808380818D7F808388E43C
:100760008093B80085E48093BC000895CF93DF9315
:100770001F92CDB7DEB760910702609303028091AC
:100780005401813049F088F0823099F4CE0101960D
:100790000E94390E698109C06091040283E192E0F0
:1007A0000E9483031092040204C083E192E00E943D
:1007B00083030F90DF91CF910895EF92FF920F93F3
:1007C0001F93CF93DF938C0184E5E82E81E0F82E10
:1007D000C0E0D0E0C017D1078CF483E192E0C330D1
:1007E000D1052CF40E945C03F701808302C00E94B3
:1007F0005C032196FFEFEF1AFF0AECCF01301105E1
:1008000041F480915401843008F454C01092540192
:1008100051C0023011050CF44DC080915401833059
:1008200009F048C0C09155011C160CF03FC080E093
:1008300090E00E948112C81729F06C2F80E090E0B0
:100840000E9489128091BC008A7B8093BC0060E08A
:1008500082E00E94E20C60E083E00E94E20CC09122
:1008600055011092FC011092FB011092FA011092B6
:10087000F9010E9498038FE491E09093F80180932E
:10088000F7018BE591E09093F6018093F501CC0F91
:10089000C093BA0086EB93E09093FE018093FD0134
:1008A0008DED93E0909300028093FF01109254012C
:1008B00010925501DF91CF911F910F91FF90EF9012
:1008C00008950E94CF172F923F924F925F926F929E
:1008D0007F928F929F92AF92BF92CF92DF92EF92D0
:1008E000FF920F931F93CF93DF9361E08CE00E9400
:1008F000E20C60E08CE00E94E20C00E010E0772463
:100900007A9490E3292E92E0392E21E1822E22E082
:10091000922E32EFA32E31E0B32EB801012E000C3F
:10092000880B990B0E9490139B01AC0160E070E072
:1009300080E090E40E9489146B017C01F1018491B4
:10094000F401C491F501D491DD23A1F081110E943D
:10095000A50CED2FF0E0EE0FFF1FE45BFE4FA5911D
:10096000B4918C91C82391E080E009F490E0C92F04
:10097000D82F02C0C0E0D0E0672D70E080E090E0AA
:100980000E9490132B013C01BE01DD0F880B990BD7
:100990000E949013A70196010E941C149B01AC01B8
:1009A000C301B2010E94F2120E945F13762E61E031
:1009B0008BE00E94E20C60E08BE00E94E20C0F5F93
:1009C0001F4F0830110509F0A8CF872DDF91CF9177
:1009D0001F910F91FF90EF90DF90CF90BF90AF905D
:1009E0009F908F907F906F905F904F903F902F904F
:1009F00008951F920F920FB60F9211248F939F9319
:100A00008091E1009091E100937F9093E10083FF5A
:100A10000FC01092E90091E09093EB001092EC006F
:100A200092E39093ED001092090298E09093F00009
:100A300082FF20C093E09093E9009091F200992307
:100A400019F09AE39093E8009091F201992339F01C
:100A50009091F20191509093F201992389F1909134
:100A60000802992339F0909108029150909308025E
:100A7000992341F184FF10C08091E2008E7E816055
:100A80008093E2008091E1008F7E8093E10080916D
:100A9000F3018E7E806111C080FF16C08091E2005C
:100AA0008E7E80618093E2008091E1008E7E809353
:100AB000E1008091F3018E7E81608093F30104C098
:100AC0005D9ACDCF289AD6CF9F918F910F900FBE70
:100AD0000F901F9018952FB7F89487708093E900B6
:100AE0009091E800892F807295FF04C09091F200E8
:100AF00080E4891B2FBF08957F928F929F92AF92BF
:100B0000BF92CF92DF92EF92FF920F931F93CF93FA
:100B1000DF93C82E8B017A0180910902811103C0F5
:100B20008FEF9FEF74C08091F30180FF05C080912B
:100B3000E00082608093E000CE2DDF2DD12C8AEF83
:100B4000B82E8C2D8770982E8C2D8072882E8C2D2F
:100B50008074782E9AE3A92E209719F4DD2009F4E9
:100B600051C08C2D0E946B0581110AC0BA94BB2024
:100B7000B9F261E070E080E090E00E944D0DECCFB2
:100B8000282F30E0C217D3070CF48C2F9FB7F894AE
:100B90009092E9002091E80025FF32C0282F30E034
:100BA000C21BD30B882029F08150A0F01092F100D5
:100BB000FBCFF801C7FE0AC0815050F0449140932A
:100BC000F1003196F9CF41914093F1008150D8F76F
:100BD000020F131FDD2019F0A092E8000AC08091D7
:100BE000E80085FD08C0A092E800DD24D39420979A
:100BF00039F0D12C05C0209719F47110A092E800AB
:100C00009FBFAACF5D9884E68093F201C701DF9170
:100C1000CF911F910F91FF90EF90DF90CF90BF90F9
:100C2000AF909F908F907F9008958091E501811102
:100C30000DC082E08093E10184E08093E201109294
:100C4000E4011092E30181E08093E50181EE91E0FF
:100C500008950F931F93CF93DF931F92CDB7DEB705
:100C600082E0898342E450E06AE571E080E80E9416
:100C7000E8010E941506DC0112960D911C91139754
:100C80000115110589F0D801ED91FC910280F381E5
:100C9000E02DBE016F5F7F4FC801099597FD04C02D
:100CA000F80100851185ECCF89810F90DF91CF91FC
:100CB0001F910F9108951F920F920FB60F9211245A
:100CC000CF92DF92EF92FF920F931F932F933F9358
:100CD0004F935F936F937F938F939F93AF93BF9344
:100CE000EF93FF93CF93DF93CDB7DEB76C97DEBF63
:100CF000CDBF1092E9008091E80083FFFBC168E05E
:100D0000CE0145960E940F0282EF8093E8008D8904
:100D100087FF05C09091E80090FFFCCF03C09EEFD5
:100D20009093E800982F907609F0C6C09E894F896D
:100D3000588D2F89F88C91110CC0803829F480913E
:100D4000F4018093F10002C01092F1001092F100C2
:100D500045C1913051F4811141C14130510509F033
:100D60003DC18091F4018D7F0BC0933061F48111FE
:100D700035C14130510509F031C18091F4018260E3
:100D80008093F4012BC1953049F48091E80080FFF5
:100D9000FCCF822F80688093E30020C1963009F059
:100DA0005EC00B8D1C8D22E01092E9001092F001C4
:100DB0001092EF01F21232C01092EE011092ED018A
:100DC0000E94290699E0BE016F5F7F4FDB01E92F8A
:100DD0001D92EA95E9F79983FA8291E09E8390EA61
:100DE00098879AEF99872091EF013091F001275F62
:100DF0003F4F3C832B838D831092E9001092F001CA
:100E00001092EF011093EE010093ED0149E050E0E4
:100E100080E00E94E8010E942906E0C01093EE01E4
:100E20000093ED010E941506DC0112960D911C91B4
:100E300013970115110509F4BBC0D801ED91FC9180
:100E40000480F581E02DBE016B5E7F4FC8010995DE
:100E5000009709F0C7C0F80100851185EACF9730E7
:100E600009F445C1983021F481E08093F100B6C0C7
:100E7000993009F0B3C0837009F039C1EEE0F1E0B8
:100E800081E031E096E32081211109C08EE7809353
:100E9000EA001092EA008F89809309029FC0809334
:100EA000E9003093EB0021912093EC009093ED004A
:100EB0008F5F873041F7EACF8B8D9C8D1092E900D0
:100EC0001092F0011092EF019093EE018093ED01EA
:100ED000898D811153C08E899D89913A49F481325F
:100EE00009F005C147E050E065E071E080E0BBC07B
:100EF000913209F0FCC0833269F48F89988DA0E0AB
:100F0000B0E08093000190930101A0930201B0939F
:100F1000030164C0803269F48091E80082FFFCCF55
:100F200067E085E091E00E940F028BEF8093E8007C
:100F300055C0823209F052C08F8980930C01EEEFC8
:100F4000FFE7859194918B3F9C4D19F0E0E0F8E02C
:100F500002C0EEEFFAE08091050190910601A091A8
:100F60000701B0910801803B9440A105B10509F04B
:100F70009EC080910C0180FF79C099C00E94150627
:100F8000FC01028113810115110509F4B0C0D801DB
:100F9000ED91FC910190F081E02DBE016B5E7F4FE1
:100FA000C801099581111AC0F80100851185EBCFA0
:100FB000F1E0FF1609F44EC0F3E0FF1298C08F89EC
:100FC000882309F44AC0823089F440E862E18BEB5F
:100FD00091E00E94B301882309F489C08EEF8093C9
:100FE000E80088C018161906CCF381C0813029F4B6
:100FF00040E868E082EB91E0ECCF833009F077C005
:101000000E941506DC011296ED90FC9013978E015C
:101010000F5F1F4F6801E114F10479F0D701ED91E2
:10102000FC910680F781E02DB801C7010995080FF2
:10103000111DF701E084F184EECFD8011C92F60176
:1010400001900020E9F73197BF016C197D0940E05C
:10105000C601BFCF60EA71E002C06CE971E0FB013C
:10106000449150E080E80E94E801B8CFEE3F2AE0CA
:10107000F20751F0808191818737A7E79A0721F025
:101080009093FF0A8093FE0A87E797E79183808316
:10109000809160008093F1019BE088E10FB6F894A5
:1010A000A895809360000FBE9093600097CF8081D9
:1010B00091818737974709F091CFA895809160007B
:1010C0008861809360008091F10180936000EE3F21
:1010D000BAE0FB0739F08091FE0A9091FF0A9183F4
:1010E00080837CCF1092FF0A1092FE0A77CF81E2B4
:1010F0008093EB006C960FB6F894DEBF0FBECDBFA9
:10110000DF91CF91FF91EF91BF91AF919F918F911F
:101110007F916F915F914F913F912F911F910F910F
:10112000FF90EF90DF90CF900F900FBE0F901F9029
:1011300018951F920F920FB60F9211242F933F9381
:101140004F935F936F937F938F939F93AF93BF93CF
:10115000EF93FF938091B900887F803609F49CC09B
:1011600068F5883209F45BC090F4803109F454C00A
:1011700038F4882309F4F6C0883009F44DC0F6C06D
:10118000883109F44CC0803209F45DC0EFC080346E
:1011900009F468C048F4803309F455C0883309F075
:1011A000E5C08093BA01D8C0803509F44FC08835B6
:1011B00009F45DC0883409F0D9C0D6C0883909F473
:1011C000C7C0A8F4883709F467C038F4883609F432
:1011D00063C0803709F460C0C9C0883809F4B8C05A
:1011E000803909F45FC0803809F0C0C05BC0803B23
:1011F00009F486C038F4803A09F466C0883A09F4E4
:101200007FC0B4C0803C09F4A7C0883C09F4A4C0E6
:10121000883B09F48AC0AAC08091E00110C0909177
:10122000DF018091DE01981770F5E091DF0181E028
:101230008E0F8093DF01F0E0E254FE4F80818093B7
:10124000BB0085EC86C08093BA018EC0E091DF01BF
:1012500081E08E0F8093DF018091BB00F0E0E254CB
:10126000FE4F80839091DF018091DE016EC0E0919E
:10127000DF0181E08E0F8093DF018091BB00F0E001
:10128000E254FE4F80838091BD0181116DC081E0E9
:101290008093BC0184EA61C083E08093BB0110921B
:1012A000B901CFCF8091B901803208F051C0E091EF
:1012B000B90181E08E0F8093B9018091BB00F0E00D
:1012C000E756FE4F8083BDCF85EC8093BC00109223
:1012D000BB018091B901803230F4E091B901F0E0B6
:1012E000E756FE4F10826091B90170E0E091F50180
:1012F000F091F60189E991E009951092B90136C0A3
:1013000084E08093BB011092980110929701E091C4
:10131000F701F091F801099580919701811105C0BD
:1013200081E08093970110927701E091980181E02C
:101330008E0F80939801F0E0E958FE4F80818093F2
:10134000BB009091980180919701981708F479CF8C
:1013500085E88093BC000AC085EC8093BC001092A5
:10136000BB0104C01092BA010E941B03FF91EF91D0
:10137000BF91AF919F918F917F916F915F914F91AD
:101380003F912F910F900FBE0F901F9018952091B5
:101390000902211103C08FEF9FEF08955FB7F89402
:1013A00022E02093E9002091F20030E012161306AB
:1013B00014F421E030E0422FFC0184E6415038F083
:1013C0002898809308029091F1009193F7CF21150E
:1013D000310521F08091F200882319F05FBFC90127
:1013E00008958BE68093E800F9CFCF93DF931F92A7
:1013F000CDB7DEB76983DC01ED91FC910280F3810A
:10140000E02D41E050E0BE016F5F7F4F09950F90E6
:10141000DF91CF91089583E08093E9008091F200FD
:10142000882319F08AE38093E8000895CF93DF932F
:101430001F92CDB7DEB7FC018485958597FD05C069
:101440002FEF3FEF358724870BC0CE0101960E9416
:10145000C709019719F4898190E002C08FEF9FEFCF
:101460000F90DF91CF9108950F931F93CF93DF9348
:101470001F92CDB7DEB78C01FC018485958597FF5F
:101480000EC0CE0101960E94C709019719F4898107
:1014900090E002C08FEF9FEFF80195878487F801F5
:1014A000848595850F90DF91CF911F910F910895BD
:1014B000FC018485958597FD0BC09FB7F89482E069
:1014C0008093E9008091F2009FBF90E0019608951B
:1014D0009FB7F89482E08093E9008091F2009FBF6B
:1014E00090E008953FB7F89480910F029091100218
:1014F000A0911102B091120226B5A89B05C02F3F02
:1015000019F00196A11DB11D3FBFBA2FA92F982F29
:101510008827820F911DA11DB11DBC01CD0142E0A4
:10152000660F771F881F991F4A95D1F70895CF93AB
:10153000DF93EC0180910C01882331F083E00E945D
:101540007C051816190634F081E090E09B838A83AD
:1015500080E090E0DF91CF91089583E00E946B05D9
:1015600090E008957F928F929F92AF92BF92CF9218
:10157000DF92EF92FF920F931F93CF93DF93CDB73C
:10158000DEB7ADB6BEB6809187022DB73EB7281B39
:1015900031090FB6F8943EBF0FBE2DBF8DB79EB771
:1015A00001966C01E0905602F12C809152029091CC
:1015B0005302D601FC019F01281B390B2E153F0554
:1015C0001CF421912D93F7CF80915702882369F164
:1015D00080914E0290914F0297FD0AC068E671E03B
:1015E0000E9480166DE270E00E948016262F01C0D6
:1015F00028E0809150029091510297FD09C068E661
:1016000071E00E9480166DE270E00E94801601C0B9
:1016100068E0F601EE0DFF1D30E1639FC00111246B
:10162000822B8083C70101967C0186010E0D1F1D50
:1016300020915C0230915D0240915A0250915B0210
:1016400060913802709139028091580281700E9435
:10165000450EE80EF91E86010E0D1F1D2091600239
:101660003091610240915E0250915F0260913A02B6
:1016700070913B0280915802869581700E94450EC0
:10168000E80EF91E86010E0D1F1D20916402309197
:101690006502409162025091630260913C02709138
:1016A0003D028091580282FB882780F90E94450EF6
:1016B000E80EF91E86010E0D1F1D20916802309163
:1016C0006902409166025091670260913E027091FA
:1016D0003F028091580283FB882780F90E94450EC3
:1016E000E80EF91E86010E0D1F1D20916C0230912F
:1016F0006D0240916A0250916B02609140027091BC
:10170000410280915802829581700E94450EE80E38
:10171000F91E86010E0D1F1D20917002309171027D
:1017200040916E0250916F026091420270914302AB
:101730008091580285FB882780F90E94450EE80EAB
:10174000F91E86010E0D1F1D209174023091750245
:10175000409172025091730260914602709147026B
:101760008091590281700E94450EE80EF91E860193
:101770000E0D1F1D20917802309179024091760262
:101780005091770260914402709145028091590214
:10179000869581700E94450EE80EF91E86010E0D99
:1017A0001F1D20917C0230917D0240917A02509160
:1017B0007B0260914802709149028091590282FB3C
:1017C000882780F90E94450EE80EF91E86010E0D4D
:1017D0001F1D209180023091810240917E02509124
:1017E0007F0260914A0270914B028091590283FB03
:1017F000882780F90E94450E8E0D9F1D8601080FD7
:10180000191F2091840230918502409182025091EB
:10181000830260914C0270914D0280915902829531
:1018200081700E94450E0091870210E07090860240
:1018300080913002811105C00E94D10D81E080931A
:10184000300248019FEF891A990AEDB7FEB7E819EF
:10185000F9090FB6F894FEBF0FBEEDBF2DB73EB726
:101860002F5F3F4F79017182A801B601C90101962E
:101870000E94D41780912202A401B70180640E94C3
:101880007C050FB6F894BEBE0FBEADBEDF91CF9102
:101890001F910F91FF90EF90DF90CF90BF90AF908E
:1018A0009F908F907F9008950F931F939091550272
:1018B000611129C0891708F045C0982F9695969513
:1018C0009695E0915202F0915302E90FF11D877055
:1018D00041E050E060E070E08A019B0104C0000F2D
:1018E000111F221F331F8A95D2F7D901C801809595
:1018F00090818923808380915402882319F11F915C
:101900000F910C94B20A8917E8F4982F9695969542
:101910009695E0915202F0915302E90FF11D877004
:1019200041E050E060E070E08A019B0104C0000FDC
:10193000111F221F331F8A95D2F7D901C8012081B8
:10194000822BD8CF1F910F91089590E0FC01319721
:10195000EF30F105B0F5EA5AFF4F0C9494168091E0
:1019600080008F7703C0809180008F7D80938000FE
:10197000089580918000877FF9CF84B58F7702C06A
:1019800084B58F7D84BD0895809190008F7707C0C6
:10199000809190008F7D03C080919000877F80931D
:1019A000900008958091C0008F7703C08091C0009F
:1019B0008F7D8093C00008958091C200877F8093BF
:1019C000C20008951F93CF93DF93282F30E0F901D1
:1019D000E85DFD4F8491F901E75FFD4FD491F90176
:1019E000E651FE4FC491CC23C1F0162F81110E9405
:1019F000A50CEC2FF0E0EE0FFF1FE452FE4FA59177
:101A0000B4919FB7F894111104C08C91D095D8234C
:101A100002C0EC91DE2BDC939FBFDF91CF911F9131
:101A20000895CF93DF9390E0FC01E75FFD4F249191
:101A3000FC01E651FE4F8491882361F190E0880F0C
:101A4000991FFC01E253FE4FC591D491FC01E45271
:101A5000FE4FA591B491611109C09FB7F894888198
:101A6000209582238883EC912E230BC0623061F491
:101A70009FB7F8948881322F309583238883EC9127
:101A80002E2B2C939FBF06C08FB7F894E8812E2B86
:101A900028838FBFDF91CF9108958F929F92AF924D
:101AA000BF92CF92DF92EF92FF926B017C010E9476
:101AB000720A4B015C01C114D104E104F104F1F09C
:101AC0000E94720ADC01CB0188199909AA09BB0995
:101AD000883E9340A105B10570F321E0C21AD108F8
:101AE000E108F10888EE880E83E0981EA11CB11C65
:101AF000C114D104E104F10419F7DDCFFF90EF9098
:101B0000DF90CF90BF90AF909F908F9008951F92DD
:101B10000F920FB60F9211242F933F938F939F93A1
:101B2000AF93BF9380910B0290910C02A0910D0294
:101B3000B0910E0230910A0223E0230F2D3720F4DA
:101B40000196A11DB11D05C026E8230F0296A11D17
:101B5000B11D20930A0280930B0290930C02A09374
:101B60000D02B0930E0280910F0290911002A0918D
:101B70001102B09112020196A11DB11D80930F02B6
:101B800090931002A0931102B0931202BF91AF91F3
:101B90009F918F913F912F910F900FBE0F901F90AB
:101BA000189581E0809323028093240229E232E099
:101BB00030932602209325021092280210922702C9
:101BC00028E231E03093200220931F0210922B0272
:101BD00010922A0210922D0210922C0280932E0253
:101BE00080932F0281EC809329020E941506FC014C
:101BF00021818091230290E0820F911D0897C4F506
:101C0000A281B381109729F48FE192E093838283BC
:101C10000EC018968D919C911997009711F0DC01D8
:101C2000F8CF8FE192E019969C938E93189780815C
:101C300080932102818180932202908180912402ED
:101C4000890F808380E090912302891788F4A09106
:101C50002502B0912602A80FB11D9C91A181B0E090
:101C6000A35FBE4F9C9391819F5F91838F5FEBCF6A
:101C70000895CF93DF93EC0180E090E00E94811201
:101C80008883CE01DF91CF910895CF92DF92EF92BA
:101C9000FF920F931F93CF93DF93D901E80142176F
:101CA00053071CF0FA01690102C06A01F901882397
:101CB000E1F1CB016C157D050CF4C6019F018E1777
:101CC0009F070CF49C01A417B50734F4CF01821BC5
:101CD000930B9C012C0D3D1D0D2C000CEE08FF08F4
:101CE000C901330FAA0BBB0B9C01AD012C193D0997
:101CF0004E095F09AEEFBFEF0E94B6128F01FF0FD2
:101D0000220B330BA90198012C193D094E095F09DB
:101D10000E949712DA01C9018F5F9F47A109B1099B
:101D20008883998382E090E002C080E090E0DF91B8
:101D3000CF911F910F91FF90EF90DF90CF9008957A
:101D4000CF93DF931F92CDB7DEB7789484B58260CE
:101D500084BD84B5816084BD85B5826085BD85B54F
:101D6000816085BD80916E00816080936E001092CD
:101D70008100809181008260809381008091810048
:101D800081608093810080918000816080938000D9
:101D90008091910082608093910080919100816098
:101DA0008093910080919000816080939000809159
:101DB000C10084608093C1008091C10082608093E3
:101DC000C1008091C10081608093C1008091C300F7
:101DD00081608093C3008091C00082608093C000C6
:101DE0008091C20081608093C20080917A008460FB
:101DF00080937A0080917A00826080937A0080914B
:101E00007A00816080937A0080917A008068809364
:101E10007A00109209021092F4011092F30180915D
:101E2000D70081608093D70080EA8093D80089B57D
:101E3000806189BD89B5826089BD09B400FEFDCF8E
:101E400061E070E080E090E00E944D0D8091D8004C
:101E50008F7C80618093D8008091E000807F8093A8
:101E6000E0008091E1008E7E8093E1008DE0809320
:101E7000E200559A209ACE0101960E94390E89817E
:101E80008F3FB9F480E090E00E948112843529F000
:101E900064E580E090E00E94891281E090E00E9479
:101EA0008112882341F060E081E090E00E94891275
:101EB00002C08093040160E088E00E94110D61E09F
:101EC0008BE00E94110D61E08CE00E94110D60E03A
:101ED0008BE00E94E20C60E08CE00E94E20C10912A
:101EE00004011092FC011092FB011092FA01109271
:101EF000F9010E9498038FE491E09093F801809398
:101F0000F7018BE591E09093F6018093F501110FB5
:101F10001093BA0086EB93E09093FE018093FD014D
:101F20008DED93E0909300028093FF0104E211E0B5
:101F30009AE1E92E91E0F92EF701D1907F0161E05D
:101F40008D2D0E94110D60E08D2D0E94E20C0E156A
:101F50001F0591F710920402A0E04A2EA0E05A2E2D
:101F6000CC24CA94DC2CAA24A394B12C0E94630430
:101F7000382E80930702FAE16F2EF1E07F2EE12CDC
:101F8000F12C882E912CB4010E2C02C0759567950A
:101F90000A94E2F76170F30181913F010E94E20C23
:101FA000FFEFEF1AFF0A28E0E216F10461F78091D3
:101FB000040283298093040232FE0AC08091010248
:101FC000909102020196909302028093010204C054
:101FD000109202021092010280910102909102027D
:101FE000813D974038F44114510409F4BFCF0E9459
:101FF0000000BCCFE4E0FE2E7AE1872E71E0972E40
:1020000061E0F40181914F010E94E20C081519056D
:10201000B9F76AEF70E080E090E00E944D0D6AE150
:10202000862E61E0962E60E0F40181914F010E94BE
:10203000E20C08151905B9F76AEF70E080E090E04E
:102040000E944D0DFA94F110D7CF81E08093540295
:102050000E94B20AD0925B02C0925A02B0925D0214
:10206000A0925C02D0925F02C0925E02B0926102C6
:10207000A09260020E946304982E8093070284FD60
:1020800005C085FB992790F980E002C09FEF8FEF94
:1020900090933A0280933B028091540281110E94F6
:1020A000B20A96FC09C0892D092C000C990B991FC6
:1020B0009927991F80E002C09FEF8FEF909338021D
:1020C000809339028091540281110E94B20A692DD5
:1020D000617080E00E94540CE92CF12CB7017595D9
:1020E0006795617081E00E94540CB7017595679502
:1020F00075956795617082E00E94540CB70153E0BA
:10210000759567955A95E1F7617083E00E94540CCC
:1021100092FE0AC080910102909102020196909372
:1021200002028093010204C0109202021092010286
:102130008091010290910202893E934008F49ACF67
:1021400024E0F22E9AE1892E91E0992E61E0F401CB
:1021500081914F010E94E20C08151905B9F76AEF49
:1021600070E080E090E00E944D0D8AE1882E81E0D1
:10217000982E60E0F40181914F010E94E20C081555
:102180001905B9F76AEF70E080E090E00E944D0D0C
:10219000FA94F110D7CF27CFCF92DF92EF92FF9230
:1021A0001F93CF93DF93CDB7DEB7C659D1090FB6D2
:1021B000F894DEBF0FBECDBF10928B0210928A0240
:1021C00088EE93E0A0E0B0E080938C0290938D02C3
:1021D000A0938E02B0938F0224E331E03093890202
:1021E000209388022FEF3FEF3093950220939402C3
:1021F0001092160210921502809317029093180203
:10220000A0931902B0931A0286E491E0909314020D
:1022100080931302109253021092520210925602AF
:1022200010925B0210925A028FEF93E090935D023E
:1022300080935C0210925F0210925E0290936102A2
:102240008093600210926302109262029093650282
:102250008093640210926702109266029093690262
:102260008093680210926B0210926A0290936D0242
:1022700080936C0210926F0210926E029093710222
:102280008093700210927302109272029093750202
:1022900080937402109277021092760290937902E2
:1022A0008093780210927B0210927A0290937D02C2
:1022B00080937C0210927F0210927E0290938102A2
:1022C0008093800210928302109282029093850282
:1022D0008093840223E02093860234E030935502F9
:1022E00010925702209358021092590295E0998358
:1022F00011E01A8389E08B839C83E1EAED831E83DE
:1023000045E84F83288799878A8749E14B871C874F
:1023100049E24D873E8745E14F87188A45E2498B60
:102320001A8B75E77B8B1C8B65E96D8B3E8B45E5C6
:102330004F8B188E45E6498F1A8E51E85B8F42E02D
:102340004C8F7D8F1E8F6F8F38A359A32AA39BA319
:102350001CA38DA31EA396E19FA318A790E899A79D
:1023600096E29AA79FEF9BA79FE79CA77DA790E186
:102370009EA76FA748ABE9AB1AAA8BAB90E39CABC7
:102380008DAB81E38EAB5FAB48AF80EC89AF8AAF9A
:102390008AE390E00E94AE166C018AE3FE0131965A
:1023A000D60101900D928A95E1F787E090E00E94B6
:1023B000AE167C01FC0111821082D382C2828AE3B4
:1023C00090E095838483168280913002811104C04D
:1023D0000E94D10D10933002E0912A02F0912B025D
:1023E000309729F4F0922B02E0922A0208C08081F3
:1023F0009181009711F0FC01FACFF182E0822091E7
:102400002C0230912D02F70184819581820F931F58
:1024100090932D0280932C0290915502892F8695DE
:1024200086958695977009F08F5F8093560210917C
:102430005602812F90E00E94AE1690935302809333
:10244000520281E090915702911101C080E01C5F1F
:10245000180F1093870210923902109238021092CE
:102460003B0210923A0210923D0210923C021092EE
:102470003F0210923E0210924102109240021092CE
:1024800043021092420210924502109244021092AE
:10249000470210924602109249021092480210928E
:1024A0004B0210924A0210924D0210924C028FEF92
:1024B0009FEF90934F0280934E029093510280932E
:1024C000500280E090E02091560230E0821793079E
:1024D0004CF4E0915202F0915302E80FF91F108280
:1024E0000196F1CFCA56DF4F0FB6F894DEBF0FBE8C
:1024F000CDBFDF91CF911F91FF90EF90DF90CF90F4
:102500000895F999FECF92BD81BDF89A992780B5BB
:102510000895262FF999FECF1FBA92BD81BD20BD27
:102520000FB6F894FA9AF99A0FBE01960895052EFF
:1025300097FB1EF400940E94AE1257FD07D00E9434
:10254000C11207FC03D04EF40C94AE125095409586
:10255000309521953F4F4F4F5F4F0895909580954F
:10256000709561957F4F8F4F9F4F08950E94E312A2
:10257000A59F900DB49F900DA49F800D911D1124D7
:102580000895A1E21A2EAA1BBB1BFD010DC0AA1FB4
:10259000BB1FEE1FFF1FA217B307E407F50720F0CC
:1025A000A21BB30BE40BF50B661F771F881F991F47
:1025B0001A9469F760957095809590959B01AC0190
:1025C000BD01CF010895A29FB001B39FC001A39F99
:1025D000700D811D1124911DB29F700D811D11245C
:1025E000911D08955058BB27AA270E940A130C94E6
:1025F000E2130E94D41338F00E94DB1320F039F468
:102600009F3F19F426F40C94D1130EF4E095E7FBE8
:102610000C94CB13E92F0E94F31358F3BA176207F7
:1026200073078407950720F079F4A6F50C94151428
:102630000EF4E0950B2EBA2FA02D0B01B9019001DD
:102640000C01CA01A0011124FF27591B99F0593F21
:1026500050F4503E68F11A16F040A22F232F342F69
:102660004427585FF3CF469537952795A795F040B7
:102670005395C9F77EF41F16BA0B620B730B840BCC
:10268000BAF09150A1F0FF0FBB1F661F771F881F84
:10269000C2F70EC0BA0F621F731F841F48F48795DC
:1026A00077956795B795F7959E3F08F0B0CF9395CE
:1026B000880F08F09927EE0F9795879508950E9447
:1026C000FB1388F09F5798F0B92F9927B751B0F0B6
:1026D000E1F0660F771F881F991F1AF0BA95C9F7A6
:1026E00014C0B13091F00E941514B1E008950C941B
:1026F0001514672F782F8827B85F39F0B93FCCF3CE
:10270000869577956795B395D9F73EF49095809522
:10271000709561957F4F8F4F9F4F0895E89409C042
:1027200097FB3EF490958095709561957F4F8F4F04
:102730009F4F9923A9F0F92F96E9BB279395F6951A
:10274000879577956795B795F111F8CFFAF4BB0F98
:1027500011F460FF1BC06F5F7F4F8F4F9F4F16C0FC
:10276000882311F096E911C0772321F09EE8872F86
:10277000762F05C0662371F096E8862F70E060E042
:102780002AF09A95660F771F881FDAF7880F9695BB
:10279000879597F9089597F99F6780E870E060E062
:1027A00008959FEF80EC089500240A9416161706EA
:1027B00018060906089500240A9412161306140632
:1027C00005060895092E0394000C11F4882352F095
:1027D000BB0F40F4BF2B11F460FF04C06F5F7F4F4D
:1027E0008F4F9F4F089557FD9058440F551F59F034
:1027F0005F3F71F04795880F97FB991F61F09F3FEE
:1028000079F087950895121613061406551FF2CF16
:102810004695F1DF08C0161617061806991FF1CF66
:1028200086957105610508940895E894BB2766278D
:102830007727CB0197F908950E942F140C94E21387
:102840000E94D41338F00E94DB1320F0952311F07E
:102850000C94CB130C94D11311240C9416140E94D5
:10286000F31370F3959FC1F3950F50E0551F629FCE
:10287000F001729FBB27F00DB11D639FAA27F00DD9
:10288000B11DAA1F649F6627B00DA11D661F829F00
:102890002227B00DA11D621F739FB00DA11D621FE5
:1028A000839FA00D611D221F749F3327A00D611D02
:1028B000231F849F600D211D822F762F6A2F1124E4
:1028C0009F5750409AF0F1F088234AF0EE0FFF1F17
:1028D000BB1F661F771F881F91505040A9F79E3F6E
:1028E000510580F00C94CB130C9416145F3FE4F365
:1028F000983ED4F3869577956795B795F795E795C4
:102900009F5FC1F7FE2B880F911D9695879597F9CC
:102910000895FA01EE0FFF1F309621053105A1F150
:102920006115710561F48038BFE39B0749F1689434
:102930009038810561F08038BFEF9B0741F0992303
:102940004AF5FF3FE1053105210519F1E8940894A6
:10295000E795D901AA2329F4AB2FBE2FF85FD0F356
:1029600010C0FF5F70F4A695E0F7F73950F019F04A
:10297000FF3A38F49F779F930DD00F9007FC905843
:10298000089546F00C94D11360E070E080E89FE376
:1029900008954FE79F775F934F933F932F930E9444
:1029A00084152F913F914F915F910E941C140C94BC
:1029B000E11429F416F00C94CB130C9415140C9418
:1029C000D1130E94FB13A8F39638A0F707F80F92D3
:1029D000E8942BE33AEA48EB5FE70E9432140F9247
:1029E0000F920F924DB75EB70F920E94CC15EAEC92
:1029F000F0E00E9413154F915F91EF91FF91E595E3
:102A0000EE1FFF1F49F0FE57E0684427EE0F441FFA
:102A1000FA95E1F74195550B0E9446150F9007FE78
:102A20000C943A150895DF93CF931F930F93FF9261
:102A3000EF92DF927B018C01689406C0DA2EEF01E1
:102A40000E942F14FE01E894A5912591359145919E
:102A50005591A6F3EF010E940A13FE019701A80108
:102A6000DA9469F7DF90EF90FF900F911F91CF916B
:102A7000DF9108959B01AC0160E070E080E89FE386
:102A80000C9400160C94CB130C9472160E94FB133A
:102A9000D8F39923C9F3940F511DA3F391505040DB
:102AA00094F059F0882332F0660F771F881F9150F9
:102AB0005040C1F79E3F51052CF7880F911D969508
:102AC000879597F908955F3FACF0983E9CF0BB273F
:102AD000869577956795B79508F4B1609395C1F79A
:102AE000BB0F58F711F460FFE8CF6F5F7F4F8F4F38
:102AF0009F4FE3CF0C94161416F00C9472160C949E
:102B0000D11368940C94CB130E94FB13A8F3992360
:102B1000C1F3AEF3DF93CF931F930F93FF92C92FAF
:102B2000DD2788232AF02197660F771F881FDAF7A1
:102B300020E030E040E85FEB9FE3883920F0803E02
:102B400038F021968F770E94F312E2EFF0E004C094
:102B50000E94F312EFE1F1E00E9413158B01BE0118
:102B6000EC01FB2E6F5771097595771F880B990B38
:102B70000E94901328E132E741E35FE30E942F14A3
:102B8000AF2D9801AE01FF900F911F91CF91DF9172
:102B90000E940A130C94E213FA01DC01AA0FBB1F76
:102BA0009B01AC01BF5728F42227332744275078D4
:102BB00020C0B75190F4AB2F002446953795279548
:102BC000011CA395D2F3002071F0220F331F441F84
:102BD000B395DAF30ED00C94F21261307105A0E8CF
:102BE0008A07B94630F49B01AC016627772788270E
:102BF0009078309621F02083318342835383089567
:102C00000E9414160C94E2130E94DB1358F00E94E9
:102C1000D41340F029F45F3F29F00C94CB135111E9
:102C20000C9416140C94D1130E94F31368F3992397
:102C3000B1F3552391F3951B550BBB27AA276217B8
:102C40007307840738F09F5F5F4F220F331F441FC5
:102C5000AA1FA9F335D00E2E3AF0E0E832D09150F9
:102C60005040E695001CCAF72BD0FE2F29D0660FE6
:102C7000771F881FBB1F261737074807AB07B0E829
:102C800009F0BB0B802DBF01FF2793585F4F3AF02F
:102C90009E3F510578F00C94CB130C9416145F3FB3
:102CA000E4F3983ED4F3869577956795B795F795B5
:102CB0009F5FC9F7880F911D9695879597F908959D
:102CC000E1E0660F771F881FBB1F62177307840739
:102CD000BA0720F0621B730B840BBA0BEE1F88F748
:102CE000E09508959F3F31F0915020F487957795B6
:102CF0006795B795880F911D9695879597F90895D3
:102D000097FB072E16F4009407D077FD09D00E9498
:102D10009A1607FC05D03EF4909581959F4F089533
:102D2000709561957F4F0895EE0FFF1F0590F49108
:102D3000E02D0994AA1BBB1B51E107C0AA1FBB1FB2
:102D4000A617B70710F0A61BB70B881F991F5A9537
:102D5000A9F780959095BC01CD0108950F931F931D
:102D6000CF93DF938230910510F482E090E0E09100
:102D7000DA02F091DB0220E030E0A0E0B0E0309732
:102D800019F1408151810281138148175907C8F018
:102D90008417950769F4109731F012960C931297E7
:102DA00013961C9327C00093DA021093DB0222C013
:102DB0002115310519F04217530718F49A01BD0186
:102DC000EF01DF01F801DBCF21153105F9F0281BF8
:102DD000390B2430310580F48A819B81611571059E
:102DE00021F0FB019383828304C09093DB028093E4
:102DF000DA02FE01329644C0FE01E20FF31F819316
:102E0000919322503109398328833AC02091D80206
:102E10003091D902232B41F42091160130911701F2
:102E20003093D9022093D8022091140130911501DA
:102E30002115310541F42DB73EB74091180150914D
:102E40001901241B350BE091D802F091D902E21749
:102E5000F307A0F42E1B3F0B2817390778F0AC01BD
:102E60004E5F5F4F2417350748F04E0F5F1F50939A
:102E7000D9024093D8028193919302C0E0E0F0E040
:102E8000CF01DF91CF911F910F910895CF93DF93E1
:102E9000009709F481C0FC01329713821282A0913D
:102EA000DA02B091DB02109781F420813181820F28
:102EB000931F2091D8023091D9022817390751F574
:102EC000F093D902E093D80267C0ED0120E030E032
:102ED000CE17DF0740F44A815B819E014115510501
:102EE000F1F0EA01F5CFD383C28340815181840F91
:102EF000951FC817D90759F488819981840F951FA8
:102F00000296918380838A819B819383828321159A
:102F1000310529F4F093DB02E093DA023DC0E901C8
:102F2000FB83EA8349915991C40FD51FEC17FD0724
:102F300061F480819181840F951F0296E901998344
:102F40008883828193819B838A83E0E0F0E01296FC
:102F50008D919C911397009719F0FD01DC01F7CF3B
:102F60008D919C9111979D012E5F3F4F820F931F72
:102F70002091D8023091D9022817390769F4309787
:102F800029F41092DB021092DA0202C0138212823C
:102F9000B093D902A093D802DF91CF91089581E038
:102FA00090E0F8940C94DD17FB01DC0102C0019065
:0E2FB0000D9241505040D8F70895F894FFCF8D
:102FBE00FFFFFFFF5400E100000000000000C18091
:102FCE00810000000000DC0280000D0512131716B0
:102FDE001514090A000000004602CC0289026D0297
:102FEE0000000000F509970AAD0A0B0A580A160AE6
:102FFE00340A000000008303780395034E0170032A
:04300E005C034D030F
:1070000055C000006EC000006CC000006AC00000E7
:1070100068C0000066C0000064C0000062C00000DC
:1070200060C000005EC00000FCC400005AC0000048
:1070300058C0000056C0000054C0000052C00000FC
:1070400050C000005DC000004CC000004AC00000FD
:1070500048C0000046C0000044C0000042C000001C
:1070600040C000003EC000003CC000003AC000002C
:1070700038C0000036C0000034C0000032C000003C
:1070800030C000002EC000002CC000002AC000004C
:1070900028C0000026C0000024C0000022C000005C
:1070A00020C000001EC000001CC0000011241FBE34
:1070B000CFEFDAE0DEBFCDBF11E0A0E0B1E0E6E463
:1070C000FFE702C005900D92A43BB107D9F711E08C
:1070D000A4EBB1E001C01D92AD3CB107E1F74FD385
:1070E00030C78ECFF89410926F001092810081E02B
:1070F00085BF15BE47985D9A289A0C9400000895A4
:107100001F920F920FB60F9211242F938F939F937C
:10711000EF93FF9310928500109284008091B40148
:107120009091B501009741F001979093B50180933C
:10713000B401892B09F45D9A8091B6019091B70151
:10714000009741F001979093B7018093B601892B86
:1071500009F4289A8091BA019091BB01019690930D
:10716000BB018093BA01E0E0F0E0859194918F5FDC
:107170009F4F49F08091B8019091B9010196909389
:10718000B9018093B801FF91EF919F918F912F9159
:107190000F900FBE0F901F90189584E08093E90028
:1071A0000DC08091E8008B778093E80003C08EB318
:1071B000882351F08091E80082FFF9CF8091E800A8
:1071C00085FFEFCF8091F1000895982F83E08093A1
:1071D000E9008091E80085FD0DC08091E8008E7780
:1071E0008093E80003C08EB3882369F08091E800A3
:1071F00080FFF9CF9093F1005D9884E690E0909342
:10720000B5018093B40108954F925F926F927F927F
:107210008F929F92AF92BF92CF92DF92EF92FF92A6
:107220000F931F93CF93DF9384E08093E9008091C5
:10723000E80082FF57C2289884E690E09093B70157
:107240008093B601AADF182F853481F48CE49DE188
:107250009093B9018093B80107B600FCFDCFF9996E
:10726000FECF81E180935700E89503C0843519F47F
:1072700094DF8DE00DC28C34E1F38035D1F3843797
:1072800021F484E4A2DF80E003C2813611F489E5B1
:10729000FFC18134B1F481DF182F7FDF90E0880FC8
:1072A000991FAA2797FDA095BA2F312F330F20E001
:1072B000442737FD4095542F822B932BA42BB52BBD
:1072C000B8C1803711F483E5E3C1833549F4C0E0E8
:1072D000D1E089917ADF21E0C730D207D1F7D9C157
:1072E000863521F481E371DF80E3D2C1833731F445
:1072F00087E86BDF85E969DF8EE1CAC18536B9F4BD
:10730000E0E0F0E093E085E090935700E89507B661
:1073100000FCFDCF80935700E89507B600FCFDCF39
:10732000E058FF4FA0E7E030FA0771F7A2CF8237AD
:1073300039F4E1E0F0E089E0809357008491A8C13E
:10734000863439F4E0E0F0E089E0809357008491DE
:107350009FC18E3439F4E3E0F0E089E08093570078
:10736000849196C1813539F4E2E0F0E089E08093C0
:10737000570084918DC1823631F489E526DF80E0A3
:1073800024DF80E885C1823419F0873609F0E5C032
:107390001092B9011092B80100DF082FFEDEF82E1E
:1073A000FCDE682E8554823008F071C1902F80E099
:1073B000CF2DD0E0C82BD92B10926F00173609F0D3
:1073C0004BC081E180935700E895DD24CC24C39421
:1073D0003FC0E090BD01F090BE010091BF0110914F
:1073E000C001B6E46B16D9F4ED2DF0E0EE29FF29CB
:1073F000E4918E2FEADEDD2081F082E090E0A0E0D3
:10740000B0E0E80EF91E0A1F1B1FE092BD01F092CA
:10741000BE010093BF011093C001DC2418C0D80145
:10742000C701B695A7959795879575D5CEDE82E06D
:1074300090E0A0E0B0E0E80EF91E0A1F1B1FE092EA
:10744000BD01F092BE010093BF011093C0012197CE
:10745000209709F0BECF7DC08090BD019090BE0105
:10746000A090BF01B090C00196E4691609F05DC01C
:1074700083E0F40180935700E89507B600FCFDCF48
:1074800054C0F6E46F1661F5772031F1E090BD014C
:10749000F090BE010091BF011091C0017EDED82E98
:1074A000CC24852D90E08C299D29F7010C01409278
:1074B0005700E895112482E090E0A0E0B0E0E80EEB
:1074C000F91E0A1F1B1FE092BD01F092BE0100933E
:1074D000BF011093C00102C060DE582E742423C087
:1074E000E090BD01F090BE010091BF011091C0017C
:1074F00016950795F794E79450DE682FC70113D5CA
:107500008091BD019091BE01A091BF01B091C001D9
:107510000296A11DB11D8093BD019093BE01A09361
:10752000BF01B093C001219704C05524772444249F
:107530004394209709F0A5CF96E4691641F485E0BD
:10754000F40180935700E89507B600FCFDCF8DE06D
:107550003CDE82E080936F009CC0833471F4009124
:10756000BD011091BE0119DE90E021E0F8010C018F
:1075700020935700E89511247CCE833619F5E090CE
:10758000BD01F090BE010091BF011091C00105DE68
:10759000F701E16090E021E00C0120935700E895AD
:1075A000112482E090E0A0E0B0E0E80EF91E0A1F8E
:1075B0001B1FE092BD01F092BE010093BF0110932A
:1075C000C00157CE8D3661F4E091BD01F091BE014E
:1075D00085E080935700E89507B600FCFDCF49CEC3
:1075E000823551F4E091BD01F091BE0105911491F5
:1075F000812FEBDD802F4CC0843421F5E090BD015C
:10760000F090BE010091BF011091C0011695079541
:10761000F794E794C2DD682FC70185D48091BD013E
:107620009091BE01A091BF01B091C0010296A11D31
:10763000B11D8093BD019093BE01A093BF01B09393
:10764000C00117CE843609F5E090BD01F090BE016F
:107650000091BF011091C001D801C701B695A7954F
:107660009795879558D4B1DD82E090E0A0E0B0E036
:10767000E80EF91E0A1F1B1FE092BD01F092BE0129
:107680000093BF011093C00104C08B3111F08FE350
:107690009CDD83E08093E9009091E8008091E80010
:1076A0008E778093E80095FF04C010C08EB38823C6
:1076B000C9F08091E80080FFF9CF8091E8008E77D3
:1076C0008093E80003C08EB3882361F08091E800C6
:1076D00080FFF9CF84E08093E9008091E8008B7708
:1076E0008093E800DF91CF911F910F91FF90EF9071
:1076F000DF90CF90BF90AF909F908F907F906F90D2
:107700005F904F9008959091C501892F8F778132B6
:1077100049F58091C6018032A1F0813219F5913A84
:1077200009F58091E800877F8093E8008CE091E084
:1077300067E070E027D28091E8008B778093E800C3
:107740000895913279F48091E800877F8093E80072
:107750008CE091E067E070E079D28091E8008E776C
:107760008093E800089582E061EC42E0D1D083E0AC
:1077700061E842E1CDD084E060E842E1C9C01F93F6
:10778000209100081092000844B714BE88E10FB69B
:10779000F89480936000109260000FBE80E8E0E0F3
:1077A000F0E00FB6F89480936100E09361000FBEA3
:1077B00031E035BF92E095BF3F9A209A559A809369
:1077C00061001092610047985D9A289A1092890092
:1077D0008AEF8093880090936F0083E0809381000C
:1077E000859194918F5F9F4F11F03093BC01942F3E
:1077F00041FF19C0809109012817A9F08093000862
:10780000789480911301882339F08091BA01909186
:10781000BB018F5E9240C8F3F8941092000881E09B
:10782000809313010CC090FF04C08091BC01882399
:1078300051F493FF09C080910901281729F0809124
:10784000BC01882309F04EDCD4D078941092B901A1
:107850001092B8011EEF20C0D7DC4BD38091B80145
:107860009091B90181549F4110F0109213018091C1
:10787000C1019091C20101969093C2018093C10110
:10788000292F97FF03C0512F591B252F220F28178F
:1078900010F4479801C0479A809113018823E1F6BC
:1078A0008091E00081608093E0001CDC80E090E04B
:1078B0001F910895FA01923049F0933061F09130B0
:1078C000F9F484E191E022E130E01EC086E291E02B
:1078D0002EE330E019C0882329F484E691E024E007
:1078E00030E012C0813029F488E691E02EE130E0EA
:1078F0000BC0823029F488E891E02AE230E004C02D
:1079000080E090E020E030E091838083C901089519
:107910008093E9008091EB0081608093EB001092EE
:10792000ED006093EC004093ED008091EE00881F25
:107930008827881F08958091C50188238CF403C08F
:107940008EB38823B1F08091E80082FFF9CF809157
:10795000E8008B778093E80008958EB3882349F080
:107960008091E80080FFF9CF8091E8008E778093C6
:10797000E8000895EF92FF920F931F9345D04CD0EB
:1079800008ED10E0F80180818F7780838081806826
:10799000808380818F7D808319BC1EBA1092C301C1
:1079A00080EEE82EF12CF70180818B7F8083F80137
:1079B00080818160808380E060E042E0A9DFE1EEC9
:1079C000F0E080818E7F8083E2EEF0E08081816054
:1079D0008083808188608083F70180818E7F8083AF
:1079E000F8018081806180831F910F91FF90EF905B
:1079F0000895E7EDF0E08081816080838AE482BFB2
:107A000081E08093C401B6CFE8EDF0E080818E7F05
:107A100080831092E20008951092DA001092E10043
:107A200008951F920F920FB60F9211242F933F9338
:107A30004F935F936F937F938F939F93AF93BF9376
:107A4000EF93FF938091DA0080FF1BC08091D800F4
:107A500080FF17C08091DA008E7F8093DA008091DA
:107A6000D90080FF0BC080E189BD82E189BD09B4E6
:107A700000FEFDCF81E08EBB3BD203C019BC1EBA15
:107A800037D28091E10080FF17C08091E20080FF33
:107A900013C08091E2008E7F8093E2008091E2002B
:107AA00080618093E2008091D80080628093D8004A
:107AB00019BC85E08EBB1CD28091E10084FF2CC0F4
:107AC0008091E20084FF28C080E189BD82E189BD08
:107AD00009B400FEFDCF8091D8008F7D8093D8003F
:107AE0008091E1008F7E8093E1008091E2008F7EA3
:107AF0008093E2008091E20081608093E2008091B7
:107B0000C301882331F48091E30087FD02C081E046
:107B100001C084E08EBBECD18091E10083FF21C0E5
:107B20008091E20083FF1DC08091E100877F8093F8
:107B3000E10082E08EBB1092C3018091E1008E7F54
:107B40008093E1008091E2008E7F8093E20080913B
:107B5000E20080618093E20080E060E042E0D8DEF5
:107B6000C7D1FF91EF91BF91AF919F918F917F917D
:107B70006F915F914F913F912F910F900FBE0F909A
:107B80001F9018959C014091CB015091CC01461754
:107B9000570718F4F90190E044C06115710511F020
:107BA000AB01F8CF8091E8008E778093E80040E049
:107BB00050E0F0CF8EB3882309F444C0853009F437
:107BC00043C08091E80083FF02C081E00895809166
:107BD000E80082FD31C08091E80080FF22C08091E2
:107BE000F3009091F200782F60E0292F30E0262BEF
:107BF000372B07C081918093F100415050402F5F97
:107C00003F4F4115510519F02830310598F390E0A8
:107C10002830310509F491E08091E8008E77809357
:107C2000E8004115510531F6992321F605C08EB3C0
:107C3000882341F0853041F08091E80082FFF7CF42
:107C400080E0089582E0089583E008959C01611525
:107C5000710529F48091E8008B778093E800F901A1
:107C600026C08EB3882391F1853091F18091E80090
:107C700083FF02C081E008958091E80082FFF1CF88
:107C800006C08091F10081936150704059F02091BD
:107C9000F3008091F200322F20E090E0822B932BB2
:107CA000892B79F78091E8008B778093E800611544
:107CB0007105B9F605C08EB3882341F0853041F0D7
:107CC0008091E80080FFF7CF80E0089582E008957A
:107CD00083E008950F931F93DF93CF9300D0CDB728
:107CE000DEB7E5ECF1E08091F100819381E0ED3CBD
:107CF000F807C9F708DD8091E80083FFE4C08091B0
:107D0000C5019091C601953009F46DC0963040F4DC
:107D1000913081F1913070F0933009F0D4C02AC0D5
:107D2000983009F4A3C0993009F4B2C0963009F034
:107D3000CAC07CC0803809F4C6C0823809F0C3C00C
:107D40008091C90187708093E9008091EB001092C7
:107D5000E9002091E800277F2093E80090E025E0EB
:107D6000969587952A95E1F781708093F10010929E
:107D7000F10087C0882319F0823009F0A4C08F7108
:107D8000823009F0A0C08091C701882331F520918D
:107D9000C901277009F497C02093E9008091EB0096
:107DA00080FF1BC0933021F48091EB00806213C0F0
:107DB0008091EB0080618093EB0081E090E002C055
:107DC000880F991F2A95E2F78093EA001092EA0043
:107DD0008091EB0088608093EB001092E900809125
:107DE000E800877F51C0882309F06DC01091C7015A
:107DF0001F770FB7F8948091E800877F8093E800A1
:107E00009ADD8091E80080FFFCCF8091E3008078CC
:107E1000812B8093E30080688093E300112311F4A9
:107E200082E001C083E08EBB0FBF4DC0805882301E
:107E300008F049C08091C7019091C8016091C901C3
:107E4000AE014F5F5F4F36DDBC01009709F43BC0C8
:107E50008091E800877F8093E80089819A8192DE93
:107E60008091E8008B778093E8002DC0803859F529
:107E70008091E800877F8093E8008091C301809320
:107E8000F1008091E8008E778093E80054DD1BC0FC
:107E90008823C9F49091C7019230A8F48091E8003A
:107EA000877F8093E8009093C30145DD8091C301F3
:107EB000882331F48091E30087FD02C081E001C096
:107EC00084E08EBB50DC8091E80083FF0AC0809183
:107ED000EB0080628093EB008091E800877F8093C5
:107EE000E8000F900F90CF91DF911F910F910895AF
:107EF00008951F938EB3882361F01091E9001092CA
:107F0000E9008091E80083FF01C0E4DE1770109360
:107F1000E9001F910895F999FECF92BD81BDF89AAD
:107F2000992780B50895262FF999FECF1FBA92BDE3
:107F300081BD20BD0FB6F894FA9AF99A0FBE01964A
:067F40000895F894FFCF44
:107F46004341544552494E41007700080000000065
:107F56000000080112011001020000084F1B0592E3
:107F660001000201000109023E00020100803209FF
:107F7600040000010202010005240010010424028D
:107F8600040524060001070582030800FF09040111
:107F960000020A000000070504021000010705831D
:107FA60002100001040309041E03500072006F0052
:107FB60020004D006900630072006F00200035004C
:107FC60056002000200000002A03530070006100C4
:107FD60072006B00460075006E00200045006C00C4
:107FE60065006300740072006F006E006900630034
:047FF6007300000014
:040000030000700089
:00000001FF
